{
  "contractName": "BurnFeePoll",
  "abi": [
    {
      "constant": true,
      "inputs": [],
      "name": "owner",
      "outputs": [
        {
          "name": "",
          "type": "address"
        }
      ],
      "payable": false,
      "stateMutability": "view",
      "type": "function"
    },
    {
      "constant": true,
      "inputs": [
        {
          "name": "",
          "type": "address"
        }
      ],
      "name": "votes",
      "outputs": [
        {
          "name": "fee",
          "type": "uint8"
        },
        {
          "name": "status",
          "type": "uint8"
        },
        {
          "name": "lockedDgdStake",
          "type": "uint256"
        }
      ],
      "payable": false,
      "stateMutability": "view",
      "type": "function"
    },
    {
      "inputs": [],
      "payable": false,
      "stateMutability": "nonpayable",
      "type": "constructor"
    },
    {
      "anonymous": false,
      "inputs": [
        {
          "indexed": false,
          "name": "voter",
          "type": "address"
        },
        {
          "indexed": false,
          "name": "fee",
          "type": "uint8"
        },
        {
          "indexed": false,
          "name": "lockedDgdStake",
          "type": "uint256"
        }
      ],
      "name": "VoteIssued",
      "type": "event"
    },
    {
      "anonymous": false,
      "inputs": [
        {
          "indexed": false,
          "name": "voter",
          "type": "address"
        },
        {
          "indexed": false,
          "name": "fee",
          "type": "uint8"
        }
      ],
      "name": "VoteChanged",
      "type": "event"
    },
    {
      "anonymous": false,
      "inputs": [
        {
          "indexed": false,
          "name": "voter",
          "type": "address"
        }
      ],
      "name": "VoteCancelled",
      "type": "event"
    },
    {
      "constant": false,
      "inputs": [
        {
          "name": "_fee",
          "type": "uint8"
        }
      ],
      "name": "issueVote",
      "outputs": [],
      "payable": false,
      "stateMutability": "nonpayable",
      "type": "function"
    },
    {
      "constant": false,
      "inputs": [
        {
          "name": "_fee",
          "type": "uint8"
        }
      ],
      "name": "changeVote",
      "outputs": [],
      "payable": false,
      "stateMutability": "nonpayable",
      "type": "function"
    },
    {
      "constant": false,
      "inputs": [],
      "name": "cancelVote",
      "outputs": [],
      "payable": false,
      "stateMutability": "nonpayable",
      "type": "function"
    }
  ],
  "bytecode": "0x6080604052336000806101000a81548173ffffffffffffffffffffffffffffffffffffffff021916908373ffffffffffffffffffffffffffffffffffffffff16021790555073403cc7802725928652a3d116bb1781005e2e76d3600160006101000a81548173ffffffffffffffffffffffffffffffffffffffff021916908373ffffffffffffffffffffffffffffffffffffffff160217905550600160009054906101000a900473ffffffffffffffffffffffffffffffffffffffff16600260006101000a81548173ffffffffffffffffffffffffffffffffffffffff021916908373ffffffffffffffffffffffffffffffffffffffff160217905550426003556000600455602d60055534801561011657600080fd5b50610b90806101266000396000f3fe608060405234801561001057600080fd5b50600436106100575760003560e01c80638da5cb5b1461005c57806395c96554146100a6578063a7cbc4f6146100b0578063d8bff5a5146100e1578063f7711e1d1461015b575b600080fd5b61006461018c565b604051808273ffffffffffffffffffffffffffffffffffffffff1673ffffffffffffffffffffffffffffffffffffffff16815260200191505060405180910390f35b6100ae6101b1565b005b6100df600480360360208110156100c657600080fd5b81019080803560ff1690602001909291905050506103f6565b005b610123600480360360208110156100f757600080fd5b81019080803573ffffffffffffffffffffffffffffffffffffffff169060200190929190505050610809565b604051808460ff1660ff16815260200183600281111561013f57fe5b60ff168152602001828152602001935050505060405180910390f35b61018a6004803603602081101561017157600080fd5b81019080803560ff16906020019092919050505061084d565b005b6000809054906101000a900473ffffffffffffffffffffffffffffffffffffffff1681565b426101c86276a70042610abd90919063ffffffff16565b60035401116101d657600080fd5b600260009054906101000a900473ffffffffffffffffffffffffffffffffffffffff1673ffffffffffffffffffffffffffffffffffffffff1663929066f5336040518263ffffffff1660e01b8152600401808273ffffffffffffffffffffffffffffffffffffffff1673ffffffffffffffffffffffffffffffffffffffff16815260200191505060206040518083038186803b15801561027557600080fd5b505afa158015610289573d6000803e3d6000fd5b505050506040513d602081101561029f57600080fd5b81019080805190602001909291905050506102b957600080fd5b60018060028111156102c757fe5b600660003373ffffffffffffffffffffffffffffffffffffffff1673ffffffffffffffffffffffffffffffffffffffff16815260200190815260200160002060000160019054906101000a900460ff16600281111561032257fe5b1461032c57600080fd5b6002600660003373ffffffffffffffffffffffffffffffffffffffff1673ffffffffffffffffffffffffffffffffffffffff16815260200190815260200160002060000160016101000a81548160ff0219169083600281111561038b57fe5b02179055507f9199253f70a204a03fa857ac0999fb451a1865461407ee7a50274e76ca72268833604051808273ffffffffffffffffffffffffffffffffffffffff1673ffffffffffffffffffffffffffffffffffffffff16815260200191505060405180910390a150565b4261040d6276a70042610abd90919063ffffffff16565b600354011161041b57600080fd5b600260009054906101000a900473ffffffffffffffffffffffffffffffffffffffff1673ffffffffffffffffffffffffffffffffffffffff1663929066f5336040518263ffffffff1660e01b8152600401808273ffffffffffffffffffffffffffffffffffffffff1673ffffffffffffffffffffffffffffffffffffffff16815260200191505060206040518083038186803b1580156104ba57600080fd5b505afa1580156104ce573d6000803e3d6000fd5b505050506040513d60208110156104e457600080fd5b81019080805190602001909291905050506104fe57600080fd5b600080600281111561050c57fe5b600660003373ffffffffffffffffffffffffffffffffffffffff1673ffffffffffffffffffffffffffffffffffffffff16815260200190815260200160002060000160019054906101000a900460ff16600281111561056757fe5b1461057157600080fd5b818060ff166004541115801561058c57506005548160ff1611155b61059557600080fd5b6000806000806000806000600260009054906101000a900473ffffffffffffffffffffffffffffffffffffffff1673ffffffffffffffffffffffffffffffffffffffff1663a8dbd0cd336040518263ffffffff1660e01b8152600401808273ffffffffffffffffffffffffffffffffffffffff1673ffffffffffffffffffffffffffffffffffffffff16815260200191505060e06040518083038186803b15801561063f57600080fd5b505afa158015610653573d6000803e3d6000fd5b505050506040513d60e081101561066957600080fd5b8101908080519060200190929190805190602001909291908051906020019092919080519060200190929190805190602001909291908051906020019092919080519060200190929190505050965096509650965096509650965060405180606001604052808b60ff168152602001600160028111156106e557fe5b815260200185815250600660003373ffffffffffffffffffffffffffffffffffffffff1673ffffffffffffffffffffffffffffffffffffffff16815260200190815260200160002060008201518160000160006101000a81548160ff021916908360ff16021790555060208201518160000160016101000a81548160ff0219169083600281111561077257fe5b0217905550604082015181600101559050507f065ad203bac96483904e2423415a599dd99629d4f88d930f794bc2086d7a8883338b86604051808473ffffffffffffffffffffffffffffffffffffffff1673ffffffffffffffffffffffffffffffffffffffff1681526020018360ff1660ff168152602001828152602001935050505060405180910390a150505050505050505050565b60066020528060005260406000206000915090508060000160009054906101000a900460ff16908060000160019054906101000a900460ff16908060010154905083565b426108646276a70042610abd90919063ffffffff16565b600354011161087257600080fd5b600260009054906101000a900473ffffffffffffffffffffffffffffffffffffffff1673ffffffffffffffffffffffffffffffffffffffff1663929066f5336040518263ffffffff1660e01b8152600401808273ffffffffffffffffffffffffffffffffffffffff1673ffffffffffffffffffffffffffffffffffffffff16815260200191505060206040518083038186803b15801561091157600080fd5b505afa158015610925573d6000803e3d6000fd5b505050506040513d602081101561093b57600080fd5b810190808051906020019092919050505061095557600080fd5b600180600281111561096357fe5b600660003373ffffffffffffffffffffffffffffffffffffffff1673ffffffffffffffffffffffffffffffffffffffff16815260200190815260200160002060000160019054906101000a900460ff1660028111156109be57fe5b146109c857600080fd5b818060ff16600454111580156109e357506005548160ff1611155b6109ec57600080fd5b82600660003373ffffffffffffffffffffffffffffffffffffffff1673ffffffffffffffffffffffffffffffffffffffff16815260200190815260200160002060000160006101000a81548160ff021916908360ff1602179055507fac82cad584d8978f7aff7eb114a3b5c8c605389e7b469a5916c9e884afb5d3083384604051808373ffffffffffffffffffffffffffffffffffffffff1673ffffffffffffffffffffffffffffffffffffffff1681526020018260ff1660ff1681526020019250505060405180910390a1505050565b600080831415610ad05760009050610b3d565b6000828402905082848281610ae157fe5b0414610b38576040517f08c379a0000000000000000000000000000000000000000000000000000000008152600401808060200182810382526021815260200180610b446021913960400191505060405180910390fd5b809150505b9291505056fe536166654d6174683a206d756c7469706c69636174696f6e206f766572666c6f77a165627a7a72305820d341d44d63c3aeab713323c141cc8a31a2e409e6754585b2546ebe4bde449b700029",
  "source": "pragma solidity ^0.5.0;\n/**\n* @title BurnFeePoll\n* @author hypnotortoise\n* @notice Simple Vote Contract for DigixDAO participants to signal a proposed burn fee\n*\n*/\nimport \"openzeppelin-solidity/contracts/math/SafeMath.sol\";\n\ninterface DigixDaoInfo {\n    function readUserInfo(address _user)\n    external\n    view\n    returns\n    (\n        bool _isParticipant,\n        bool _isModerator,\n        uint256 _lastParticipatedQuarter,\n        uint256 _lockedDgdStake,\n        uint256 _lockedDgd,\n        uint256 _reputationPoints,\n        uint256 _quarterPoints\n    );\n    function isParticipant(address _user) external view returns (bool _is);\n}\n\ncontract BurnFeePoll {\n    using SafeMath for uint256;\n    /**\n    * State variables\n    */\n    address public owner = msg.sender;\n    address daoInfoAddress = 0x403cc7802725928652a3d116Bb1781005e2e76d3;\n    DigixDaoInfo digixDaoInfoContract = DigixDaoInfo(daoInfoAddress);\n\n    enum VoteStatus { NOT_VOTED, VOTED, CANCELLED }\n\n    struct Vote {\n        uint8 fee;\n        VoteStatus status;\n        uint256 lockedDgdStake;\n    }\n\n    uint256 startTime = now;\n\n    // @notice lower/upper fee limit for the poll;\n    uint lowerBoundFeePercent = 0;\n    uint upperBoundFeePercent = 45;\n\n    // @dev votes storage\n    mapping(address => Vote) public votes;\n\n    /**\n    * Events\n    */\n    event VoteIssued(address voter, uint8 fee, uint256 lockedDgdStake);\n    event VoteChanged(address voter, uint8 fee);\n    event VoteCancelled(address voter);\n\n    /**\n    * @dev constructor\n    */\n    constructor() public {}\n\n    /**\n    * @dev issueVote(): instantiates a new vote\n    * @param _fee voted fee\n    */\n    function issueVote (\n        uint8 _fee\n    )\n    public\n    beforeDeadline()\n    isQuarterParticipant()\n    hasStatus(VoteStatus.NOT_VOTED)\n    feeWithinRange(_fee)\n    {\n        (\n            bool _isParticipant,\n            bool _isModerator,\n            uint256 _lastParticipatedQuarter,\n            uint256 _lockedDgdStake,\n            uint256 _lockedDgd,\n            uint256 _reputationPoints,\n            uint256 _quarterPoints\n        ) = digixDaoInfoContract.readUserInfo(msg.sender);\n        votes[msg.sender] = Vote(_fee, VoteStatus.VOTED, _lockedDgdStake);\n        emit VoteIssued(msg.sender, _fee, _lockedDgdStake);\n    }\n\n    /**\n    * @dev changeVote(): modifiy existing vote\n    * @param _fee changed fee\n    */\n    function changeVote(uint8 _fee)\n    public\n    beforeDeadline()\n    isQuarterParticipant()\n    hasStatus(VoteStatus.VOTED)\n    feeWithinRange(_fee)\n    {\n        votes[msg.sender].fee = _fee;\n        emit VoteChanged(msg.sender, _fee);\n    }\n\n    /**\n    * @dev cancelVote(): withdraw existing vote\n    */\n    function cancelVote()\n    public\n    beforeDeadline()\n    isQuarterParticipant()\n    hasStatus(VoteStatus.VOTED)\n    {\n        votes[msg.sender].status = VoteStatus.CANCELLED;\n        emit VoteCancelled(msg.sender);\n    }\n\n    /**\n    * Modifiers\n    */\n    modifier beforeDeadline() {\n        // @dev Voting deadline for the poll. No more vote changes alllowed after this.\n        // @dev Hardcoded to: now + 90 days\n        require(startTime + now.mul(90 days) > now);\n        _;\n    }\n\n    modifier feeWithinRange(uint8 _fee) {\n        require(\n            lowerBoundFeePercent <= _fee &&\n            _fee <= upperBoundFeePercent\n        );\n        _;\n    }\n\n    modifier hasStatus(VoteStatus status) {\n        require(votes[msg.sender].status == status);\n        _;\n    }\n\n    modifier isQuarterParticipant() {\n        require(digixDaoInfoContract.isParticipant(msg.sender));\n        _;\n    }\n}",
  "sourcePath": "/Users/baka/project/solidity/burnFeeVoter/contracts/BurnFeePoll.sol",
  "compiler": {
    "name": "solc",
    "version": "0.5.8+commit.23d335f2.Emscripten.clang"
  },
  "schemaVersion": "3.0.12",
  "updatedAt": "2019-08-22T13:21:00.011Z",
  "devdoc": {
    "methods": {
      "cancelVote()": {
        "details": "cancelVote(): withdraw existing vote"
      },
      "changeVote(uint8)": {
        "details": "changeVote(): modifiy existing vote",
        "params": {
          "_fee": "changed fee"
        }
      },
      "constructor": {
        "details": "constructor"
      },
      "issueVote(uint8)": {
        "details": "issueVote(): instantiates a new vote",
        "params": {
          "_fee": "voted fee"
        }
      }
    }
  },
  "userdoc": {
    "methods": {}
  }
}